{"abi":[{"type":"constructor","inputs":[{"name":"_owners","type":"address[]","internalType":"address[]"},{"name":"_required","type":"uint256","internalType":"uint256"}],"stateMutability":"nonpayable"},{"type":"fallback","stateMutability":"payable"},{"type":"receive","stateMutability":"payable"},{"type":"function","name":"OwneriD","inputs":[{"name":"","type":"address","internalType":"address"}],"outputs":[{"name":"","type":"bool","internalType":"bool"}],"stateMutability":"view"},{"type":"function","name":"allTransactions","inputs":[{"name":"","type":"uint256","internalType":"uint256"}],"outputs":[{"name":"recipientAddress","type":"address","internalType":"address"},{"name":"value","type":"uint256","internalType":"uint256"},{"name":"callData","type":"bytes","internalType":"bytes"},{"name":"beenExecuted","type":"bool","internalType":"bool"},{"name":"numSignatures","type":"uint256","internalType":"uint256"}],"stateMutability":"view"},{"type":"function","name":"confirmTransaction","inputs":[{"name":"_txId","type":"uint256","internalType":"uint256"}],"outputs":[],"stateMutability":"nonpayable"},{"type":"function","name":"executeTransaction","inputs":[{"name":"_txId","type":"uint256","internalType":"uint256"}],"outputs":[],"stateMutability":"nonpayable"},{"type":"function","name":"getConfirmationCount","inputs":[{"name":"_txId","type":"uint256","internalType":"uint256"}],"outputs":[{"name":"","type":"uint256","internalType":"uint256"}],"stateMutability":"view"},{"type":"function","name":"getOwners","inputs":[],"outputs":[{"name":"","type":"address[]","internalType":"address[]"}],"stateMutability":"view"},{"type":"function","name":"getTransaction","inputs":[{"name":"_txId","type":"uint256","internalType":"uint256"}],"outputs":[{"name":"","type":"address","internalType":"address"},{"name":"","type":"uint256","internalType":"uint256"},{"name":"","type":"bytes","internalType":"bytes"},{"name":"","type":"bool","internalType":"bool"},{"name":"","type":"uint256","internalType":"uint256"}],"stateMutability":"view"},{"type":"function","name":"getTransactionCount","inputs":[],"outputs":[{"name":"","type":"uint256","internalType":"uint256"}],"stateMutability":"view"},{"type":"function","name":"isConfirmed","inputs":[{"name":"","type":"uint256","internalType":"uint256"},{"name":"","type":"address","internalType":"address"}],"outputs":[{"name":"","type":"bool","internalType":"bool"}],"stateMutability":"view"},{"type":"function","name":"owners","inputs":[{"name":"","type":"uint256","internalType":"uint256"}],"outputs":[{"name":"","type":"address","internalType":"address"}],"stateMutability":"view"},{"type":"function","name":"required","inputs":[],"outputs":[{"name":"","type":"uint256","internalType":"uint256"}],"stateMutability":"view"},{"type":"function","name":"revokeConfirmation","inputs":[{"name":"_txId","type":"uint256","internalType":"uint256"}],"outputs":[],"stateMutability":"nonpayable"},{"type":"function","name":"submitTransaction","inputs":[{"name":"_recipientAddress","type":"address","internalType":"address"},{"name":"_value","type":"uint256","internalType":"uint256"},{"name":"_callData","type":"bytes","internalType":"bytes"}],"outputs":[],"stateMutability":"nonpayable"},{"type":"event","name":"ConfirmTx","inputs":[{"name":"owner","type":"address","indexed":true,"internalType":"address"},{"name":"txId","type":"uint256","indexed":true,"internalType":"uint256"}],"anonymous":false},{"type":"event","name":"ExecuteTx","inputs":[{"name":"owner","type":"address","indexed":true,"internalType":"address"},{"name":"txId","type":"uint256","indexed":true,"internalType":"uint256"}],"anonymous":false},{"type":"event","name":"RevokeConfirmation","inputs":[{"name":"owner","type":"address","indexed":true,"internalType":"address"},{"name":"txId","type":"uint256","indexed":true,"internalType":"uint256"}],"anonymous":false},{"type":"event","name":"SubmitTx","inputs":[{"name":"owner","type":"address","indexed":true,"internalType":"address"},{"name":"txId","type":"uint256","indexed":true,"internalType":"uint256"},{"name":"recipient","type":"address","indexed":true,"internalType":"address"},{"name":"value","type":"uint256","indexed":false,"internalType":"uint256"},{"name":"data","type":"bytes","indexed":false,"internalType":"bytes"}],"anonymous":false}],"bytecode":{"object":"0x608060405234801561000f575f5ffd5b506040516124e23803806124e2833981810160405281019061003191906104e3565b8082511015610075576040517f08c379a000000000000000000000000000000000000000000000000000000000815260040161006c90610597565b60405180910390fd5b5f81116100b7576040517f08c379a00000000000000000000000000000000000000000000000000000000081526004016100ae906105ff565b60405180910390fd5b5f600590505f5f90505b83518110156102e5575f8482815181106100de576100dd61061d565b5b602002602001015190505f73ffffffffffffffffffffffffffffffffffffffff168173ffffffffffffffffffffffffffffffffffffffff1603610156576040517f08c379a000000000000000000000000000000000000000000000000000000000815260040161014d90610694565b60405180910390fd5b60035f8273ffffffffffffffffffffffffffffffffffffffff1673ffffffffffffffffffffffffffffffffffffffff1681526020019081526020015f205f9054906101000a900460ff16156101e0576040517f08c379a00000000000000000000000000000000000000000000000000000000081526004016101d7906106fc565b60405180910390fd5b828210610222576040517f08c379a000000000000000000000000000000000000000000000000000000000815260040161021990610764565b60405180910390fd5b600160035f8373ffffffffffffffffffffffffffffffffffffffff1673ffffffffffffffffffffffffffffffffffffffff1681526020019081526020015f205f6101000a81548160ff021916908315150217905550600281908060018154018082558091505060019003905f5260205f20015f9091909190916101000a81548173ffffffffffffffffffffffffffffffffffffffff021916908373ffffffffffffffffffffffffffffffffffffffff1602179055505080806001019150506100c1565b5081600181905550505050610782565b5f604051905090565b5f5ffd5b5f5ffd5b5f5ffd5b5f601f19601f8301169050919050565b7f4e487b71000000000000000000000000000000000000000000000000000000005f52604160045260245ffd5b6103508261030a565b810181811067ffffffffffffffff8211171561036f5761036e61031a565b5b80604052505050565b5f6103816102f5565b905061038d8282610347565b919050565b5f67ffffffffffffffff8211156103ac576103ab61031a565b5b602082029050602081019050919050565b5f5ffd5b5f73ffffffffffffffffffffffffffffffffffffffff82169050919050565b5f6103ea826103c1565b9050919050565b6103fa816103e0565b8114610404575f5ffd5b50565b5f81519050610415816103f1565b92915050565b5f61042d61042884610392565b610378565b905080838252602082019050602084028301858111156104505761044f6103bd565b5b835b8181101561047957806104658882610407565b845260208401935050602081019050610452565b5050509392505050565b5f82601f83011261049757610496610306565b5b81516104a784826020860161041b565b91505092915050565b5f819050919050565b6104c2816104b0565b81146104cc575f5ffd5b50565b5f815190506104dd816104b9565b92915050565b5f5f604083850312156104f9576104f86102fe565b5b5f83015167ffffffffffffffff81111561051657610515610302565b5b61052285828601610483565b9250506020610533858286016104cf565b9150509250929050565b5f82825260208201905092915050565b7f496e76616c69642023206f6620636f6e6669726d6174696f6e730000000000005f82015250565b5f610581601a8361053d565b915061058c8261054d565b602082019050919050565b5f6020820190508181035f8301526105ae81610575565b9050919050565b7f4d696e696d756d206f6e652072657175697265642e00000000000000000000005f82015250565b5f6105e960158361053d565b91506105f4826105b5565b602082019050919050565b5f6020820190508181035f830152610616816105dd565b9050919050565b7f4e487b71000000000000000000000000000000000000000000000000000000005f52603260045260245ffd5b7f496e76616c6964206f776e6572000000000000000000000000000000000000005f82015250565b5f61067e600d8361053d565b91506106898261064a565b602082019050919050565b5f6020820190508181035f8301526106ab81610672565b9050919050565b7f4f776e6572206e6f7420756e69717565000000000000000000000000000000005f82015250565b5f6106e660108361053d565b91506106f1826106b2565b602082019050919050565b5f6020820190508181035f830152610713816106da565b9050919050565b7f546f6f206d616e79206f776e65727300000000000000000000000000000000005f82015250565b5f61074e600f8361053d565b91506107598261071a565b602082019050919050565b5f6020820190508181035f83015261077b81610742565b9050919050565b611d538061078f5f395ff3fe6080604052600436106100c5575f3560e01c80638b51d13f1161007e578063c642747411610058578063c64274741461029c578063d7ff0714146102c4578063dc8452cd14610304578063ee22610b1461032e576100c6565b80638b51d13f1461020e578063a0e67e2b1461024a578063c01a8c8414610274576100c6565b8063025e7c27146100c857806320ea8d861461010457806321c5fa941461012c5780632e7700f01461016857806333ea3dc81461019257806380f59a65146101d2576100c6565b5b005b3480156100d3575f5ffd5b506100ee60048036038101906100e99190611133565b610356565b6040516100fb919061119d565b60405180910390f35b34801561010f575f5ffd5b5061012a60048036038101906101259190611133565b610391565b005b348015610137575f5ffd5b50610152600480360381019061014d91906111e0565b61064e565b60405161015f9190611225565b60405180910390f35b348015610173575f5ffd5b5061017c61066b565b604051610189919061124d565b60405180910390f35b34801561019d575f5ffd5b506101b860048036038101906101b39190611133565b610676565b6040516101c99594939291906112d6565b60405180910390f35b3480156101dd575f5ffd5b506101f860048036038101906101f3919061132e565b61077e565b6040516102059190611225565b60405180910390f35b348015610219575f5ffd5b50610234600480360381019061022f9190611133565b6107a8565b604051610241919061124d565b60405180910390f35b348015610255575f5ffd5b5061025e6107d3565b60405161026b9190611423565b60405180910390f35b34801561027f575f5ffd5b5061029a60048036038101906102959190611133565b61085e565b005b3480156102a7575f5ffd5b506102c260048036038101906102bd919061156f565b610b1f565b005b3480156102cf575f5ffd5b506102ea60048036038101906102e59190611133565b610d13565b6040516102fb9594939291906112d6565b60405180910390f35b34801561030f575f5ffd5b50610318610e04565b604051610325919061124d565b60405180910390f35b348015610339575f5ffd5b50610354600480360381019061034f9190611133565b610e0a565b005b60028181548110610365575f80fd5b905f5260205f20015f915054906101000a900473ffffffffffffffffffffffffffffffffffffffff1681565b60035f3373ffffffffffffffffffffffffffffffffffffffff1673ffffffffffffffffffffffffffffffffffffffff1681526020019081526020015f205f9054906101000a900460ff1661041a576040517f08c379a000000000000000000000000000000000000000000000000000000000815260040161041190611635565b60405180910390fd5b805f805490508110610461576040517f08c379a00000000000000000000000000000000000000000000000000000000081526004016104589061169d565b60405180910390fd5b815f8181548110610475576104746116bb565b5b905f5260205f2090600502016003015f9054906101000a900460ff16156104d1576040517f08c379a00000000000000000000000000000000000000000000000000000000081526004016104c890611732565b60405180910390fd5b60045f8481526020019081526020015f205f3373ffffffffffffffffffffffffffffffffffffffff1673ffffffffffffffffffffffffffffffffffffffff1681526020019081526020015f205f9054906101000a900460ff16610569576040517f08c379a00000000000000000000000000000000000000000000000000000000081526004016105609061179a565b60405180910390fd5b5f60045f8581526020019081526020015f205f3373ffffffffffffffffffffffffffffffffffffffff1673ffffffffffffffffffffffffffffffffffffffff1681526020019081526020015f205f6101000a81548160ff02191690831515021790555060015f84815481106105e1576105e06116bb565b5b905f5260205f2090600502016004015f8282546105fe91906117e5565b92505081905550823373ffffffffffffffffffffffffffffffffffffffff167ff0dca620e2e81f7841d07bcc105e1704fb01475b278a9d4c236e1c62945edd5560405160405180910390a3505050565b6003602052805f5260405f205f915054906101000a900460ff1681565b5f5f80549050905090565b5f5f60605f5f5f5f87815481106106905761068f6116bb565b5b905f5260205f2090600502019050805f015f9054906101000a900473ffffffffffffffffffffffffffffffffffffffff16816001015482600201836003015f9054906101000a900460ff1684600401548280546106ec90611845565b80601f016020809104026020016040519081016040528092919081815260200182805461071890611845565b80156107635780601f1061073a57610100808354040283529160200191610763565b820191905f5260205f20905b81548152906001019060200180831161074657829003601f168201915b50505050509250955095509550955095505091939590929450565b6004602052815f5260405f20602052805f5260405f205f915091509054906101000a900460ff1681565b5f5f82815481106107bc576107bb6116bb565b5b905f5260205f209060050201600401549050919050565b6060600280548060200260200160405190810160405280929190818152602001828054801561085457602002820191905f5260205f20905b815f9054906101000a900473ffffffffffffffffffffffffffffffffffffffff1673ffffffffffffffffffffffffffffffffffffffff168152602001906001019080831161080b575b5050505050905090565b60035f3373ffffffffffffffffffffffffffffffffffffffff1673ffffffffffffffffffffffffffffffffffffffff1681526020019081526020015f205f9054906101000a900460ff166108e7576040517f08c379a00000000000000000000000000000000000000000000000000000000081526004016108de90611635565b60405180910390fd5b805f80549050811061092e576040517f08c379a00000000000000000000000000000000000000000000000000000000081526004016109259061169d565b60405180910390fd5b815f8181548110610942576109416116bb565b5b905f5260205f2090600502016003015f9054906101000a900460ff161561099e576040517f08c379a000000000000000000000000000000000000000000000000000000000815260040161099590611732565b60405180910390fd5b8260045f8281526020019081526020015f205f3373ffffffffffffffffffffffffffffffffffffffff1673ffffffffffffffffffffffffffffffffffffffff1681526020019081526020015f205f9054906101000a900460ff1615610a38576040517f08c379a0000000000000000000000000000000000000000000000000000000008152600401610a2f906118bf565b60405180910390fd5b600160045f8681526020019081526020015f205f3373ffffffffffffffffffffffffffffffffffffffff1673ffffffffffffffffffffffffffffffffffffffff1681526020019081526020015f205f6101000a81548160ff02191690831515021790555060015f8581548110610ab157610ab06116bb565b5b905f5260205f2090600502016004015f828254610ace91906118dd565b92505081905550833373ffffffffffffffffffffffffffffffffffffffff167f89aa8adaff4e4175e98802d956afe39a244131e03ad9e605501ddedda71ded6c60405160405180910390a350505050565b60035f3373ffffffffffffffffffffffffffffffffffffffff1673ffffffffffffffffffffffffffffffffffffffff1681526020019081526020015f205f9054906101000a900460ff16610ba8576040517f08c379a0000000000000000000000000000000000000000000000000000000008152600401610b9f90611635565b60405180910390fd5b5f5f8054905090505f6040518060a001604052808673ffffffffffffffffffffffffffffffffffffffff1681526020018581526020018481526020015f151581526020015f815250908060018154018082558091505060019003905f5260205f2090600502015f909190919091505f820151815f015f6101000a81548173ffffffffffffffffffffffffffffffffffffffff021916908373ffffffffffffffffffffffffffffffffffffffff160217905550602082015181600101556040820151816002019081610c799190611ab0565b506060820151816003015f6101000a81548160ff0219169083151502179055506080820151816004015550508373ffffffffffffffffffffffffffffffffffffffff16813373ffffffffffffffffffffffffffffffffffffffff167fced2eda9d5cbfa4fff1f8e6ca808c4bfc34da5848a6df94cd9d4a33da65fd40b8686604051610d05929190611b7f565b60405180910390a450505050565b5f8181548110610d21575f80fd5b905f5260205f2090600502015f91509050805f015f9054906101000a900473ffffffffffffffffffffffffffffffffffffffff1690806001015490806002018054610d6b90611845565b80601f0160208091040260200160405190810160405280929190818152602001828054610d9790611845565b8015610de25780601f10610db957610100808354040283529160200191610de2565b820191905f5260205f20905b815481529060010190602001808311610dc557829003601f168201915b505050505090806003015f9054906101000a900460ff16908060040154905085565b60015481565b805f805490508110610e51576040517f08c379a0000000000000000000000000000000000000000000000000000000008152600401610e489061169d565b60405180910390fd5b815f8181548110610e6557610e646116bb565b5b905f5260205f2090600502016003015f9054906101000a900460ff1615610ec1576040517f08c379a0000000000000000000000000000000000000000000000000000000008152600401610eb890611732565b60405180910390fd5b60035f3373ffffffffffffffffffffffffffffffffffffffff1673ffffffffffffffffffffffffffffffffffffffff1681526020019081526020015f205f9054906101000a900460ff16610f4a576040517f08c379a0000000000000000000000000000000000000000000000000000000008152600401610f4190611635565b60405180910390fd5b5f5f8481548110610f5e57610f5d6116bb565b5b905f5260205f209060050201905060015481600401541015610fb5576040517f08c379a0000000000000000000000000000000000000000000000000000000008152600401610fac90611bf7565b60405180910390fd5b5f815f015f9054906101000a900473ffffffffffffffffffffffffffffffffffffffff1673ffffffffffffffffffffffffffffffffffffffff168260010154836002016040516110059190611c9f565b5f6040518083038185875af1925050503d805f811461103f576040519150601f19603f3d011682016040523d82523d5f602084013e611044565b606091505b5050905080611088576040517f08c379a000000000000000000000000000000000000000000000000000000000815260040161107f90611cff565b60405180910390fd5b6001826003015f6101000a81548160ff021916908315150217905550843373ffffffffffffffffffffffffffffffffffffffff167f39bf31f4588071daaa9c395053bda7fb7fab807ac7e3d18f77dc5a6322423eba60405160405180910390a35050505050565b5f604051905090565b5f5ffd5b5f5ffd5b5f819050919050565b61111281611100565b811461111c575f5ffd5b50565b5f8135905061112d81611109565b92915050565b5f60208284031215611148576111476110f8565b5b5f6111558482850161111f565b91505092915050565b5f73ffffffffffffffffffffffffffffffffffffffff82169050919050565b5f6111878261115e565b9050919050565b6111978161117d565b82525050565b5f6020820190506111b05f83018461118e565b92915050565b6111bf8161117d565b81146111c9575f5ffd5b50565b5f813590506111da816111b6565b92915050565b5f602082840312156111f5576111f46110f8565b5b5f611202848285016111cc565b91505092915050565b5f8115159050919050565b61121f8161120b565b82525050565b5f6020820190506112385f830184611216565b92915050565b61124781611100565b82525050565b5f6020820190506112605f83018461123e565b92915050565b5f81519050919050565b5f82825260208201905092915050565b8281835e5f83830152505050565b5f601f19601f8301169050919050565b5f6112a882611266565b6112b28185611270565b93506112c2818560208601611280565b6112cb8161128e565b840191505092915050565b5f60a0820190506112e95f83018861118e565b6112f6602083018761123e565b8181036040830152611308818661129e565b90506113176060830185611216565b611324608083018461123e565b9695505050505050565b5f5f60408385031215611344576113436110f8565b5b5f6113518582860161111f565b9250506020611362858286016111cc565b9150509250929050565b5f81519050919050565b5f82825260208201905092915050565b5f819050602082019050919050565b61139e8161117d565b82525050565b5f6113af8383611395565b60208301905092915050565b5f602082019050919050565b5f6113d18261136c565b6113db8185611376565b93506113e683611386565b805f5b838110156114165781516113fd88826113a4565b9750611408836113bb565b9250506001810190506113e9565b5085935050505092915050565b5f6020820190508181035f83015261143b81846113c7565b905092915050565b5f5ffd5b5f5ffd5b7f4e487b71000000000000000000000000000000000000000000000000000000005f52604160045260245ffd5b6114818261128e565b810181811067ffffffffffffffff821117156114a05761149f61144b565b5b80604052505050565b5f6114b26110ef565b90506114be8282611478565b919050565b5f67ffffffffffffffff8211156114dd576114dc61144b565b5b6114e68261128e565b9050602081019050919050565b828183375f83830152505050565b5f61151361150e846114c3565b6114a9565b90508281526020810184848401111561152f5761152e611447565b5b61153a8482856114f3565b509392505050565b5f82601f83011261155657611555611443565b5b8135611566848260208601611501565b91505092915050565b5f5f5f60608486031215611586576115856110f8565b5b5f611593868287016111cc565b93505060206115a48682870161111f565b925050604084013567ffffffffffffffff8111156115c5576115c46110fc565b5b6115d186828701611542565b9150509250925092565b5f82825260208201905092915050565b7f4f6e6c79206f776e65722e0000000000000000000000000000000000000000005f82015250565b5f61161f600b836115db565b915061162a826115eb565b602082019050919050565b5f6020820190508181035f83015261164c81611613565b9050919050565b7f4e6f2073756368207472616e73616374696f6e2e0000000000000000000000005f82015250565b5f6116876014836115db565b915061169282611653565b602082019050919050565b5f6020820190508181035f8301526116b48161167b565b9050919050565b7f4e487b71000000000000000000000000000000000000000000000000000000005f52603260045260245ffd5b7f416c7265616479206578656375746564000000000000000000000000000000005f82015250565b5f61171c6010836115db565b9150611727826116e8565b602082019050919050565b5f6020820190508181035f83015261174981611710565b9050919050565b7f4e6f7420636f6e6669726d65642e0000000000000000000000000000000000005f82015250565b5f611784600e836115db565b915061178f82611750565b602082019050919050565b5f6020820190508181035f8301526117b181611778565b9050919050565b7f4e487b71000000000000000000000000000000000000000000000000000000005f52601160045260245ffd5b5f6117ef82611100565b91506117fa83611100565b9250828203905081811115611812576118116117b8565b5b92915050565b7f4e487b71000000000000000000000000000000000000000000000000000000005f52602260045260245ffd5b5f600282049050600182168061185c57607f821691505b60208210810361186f5761186e611818565b5b50919050565b7f416c726561647920636f6e6669726d65640000000000000000000000000000005f82015250565b5f6118a96011836115db565b91506118b482611875565b602082019050919050565b5f6020820190508181035f8301526118d68161189d565b9050919050565b5f6118e782611100565b91506118f283611100565b925082820190508082111561190a576119096117b8565b5b92915050565b5f819050815f5260205f209050919050565b5f6020601f8301049050919050565b5f82821b905092915050565b5f6008830261196c7fffffffffffffffffffffffffffffffffffffffffffffffffffffffffffffffff82611931565b6119768683611931565b95508019841693508086168417925050509392505050565b5f819050919050565b5f6119b16119ac6119a784611100565b61198e565b611100565b9050919050565b5f819050919050565b6119ca83611997565b6119de6119d6826119b8565b84845461193d565b825550505050565b5f5f905090565b6119f56119e6565b611a008184846119c1565b505050565b5b81811015611a2357611a185f826119ed565b600181019050611a06565b5050565b601f821115611a6857611a3981611910565b611a4284611922565b81016020851015611a51578190505b611a65611a5d85611922565b830182611a05565b50505b505050565b5f82821c905092915050565b5f611a885f1984600802611a6d565b1980831691505092915050565b5f611aa08383611a79565b9150826002028217905092915050565b611ab982611266565b67ffffffffffffffff811115611ad257611ad161144b565b5b611adc8254611845565b611ae7828285611a27565b5f60209050601f831160018114611b18575f8415611b06578287015190505b611b108582611a95565b865550611b77565b601f198416611b2686611910565b5f5b82811015611b4d57848901518255600182019150602085019450602081019050611b28565b86831015611b6a5784890151611b66601f891682611a79565b8355505b6001600288020188555050505b505050505050565b5f604082019050611b925f83018561123e565b8181036020830152611ba4818461129e565b90509392505050565b7f4e6f7420656e6f75676820636f6e6669726d6174696f6e7300000000000000005f82015250565b5f611be16018836115db565b9150611bec82611bad565b602082019050919050565b5f6020820190508181035f830152611c0e81611bd5565b9050919050565b5f81905092915050565b5f8154611c2b81611845565b611c358186611c15565b9450600182165f8114611c4f5760018114611c6457611c96565b60ff1983168652811515820286019350611c96565b611c6d85611910565b5f5b83811015611c8e57815481890152600182019150602081019050611c6f565b838801955050505b50505092915050565b5f611caa8284611c1f565b915081905092915050565b7f5472616e73616374696f6e206661696c656400000000000000000000000000005f82015250565b5f611ce96012836115db565b9150611cf482611cb5565b602082019050919050565b5f6020820190508181035f830152611d1681611cdd565b905091905056fea26469706673582212207321a1c57893b01eeb5a8dca796eb6bdabefe49928deae2857ed13d5e63e7cd464736f6c634300081c0033","linkReferences":{}},"methodIdentifiers":{"OwneriD(address)":"21c5fa94","allTransactions(uint256)":"d7ff0714","confirmTransaction(uint256)":"c01a8c84","executeTransaction(uint256)":"ee22610b","getConfirmationCount(uint256)":"8b51d13f","getOwners()":"a0e67e2b","getTransaction(uint256)":"33ea3dc8","getTransactionCount()":"2e7700f0","isConfirmed(uint256,address)":"80f59a65","owners(uint256)":"025e7c27","required()":"dc8452cd","revokeConfirmation(uint256)":"20ea8d86","submitTransaction(address,uint256,bytes)":"c6427474"},"id":19}